:100000000C947A010C94A2010C94A2010C94A2010C
:100010000C94A2010C94A2010C94A2010C94A201D4
:100020000C94A2010C94A2010C94A2010C94A201C4
:100030000C94A2010C94A2010C94A2010C94A201B4
:100040000C9463130C94A2010C942A100C94781055
:100050000C94A2010C94A2010C94A2010C94A20194
:100060000C94A2010C94A201524632344E6574776E
:100070006F726B2F6578616D706C65732F68656C3E
:100080006C6F776F726C645F74782F000A0B0C0DC5
:100090000E0F111213141516000102030405F301CB
:1000A000F901FF01070210021A0223022A0232029A
:1000B000390240024702504120506F776572092093
:1000C0003D2025530D0A00435243204C656E677452
:1000D0006809203D2025530D0A004D6F64656C09A9
:1000E00009203D2025530D0A0044617461205261AE
:1000F000746509203D2025530D0A0044594E504493
:100100002F4645415455524500434F4E46494700FE
:1001100052465F53455455500052465F4348004590
:100120004E5F52584144445200454E5F4141005297
:10013000585F50575F50302D360054585F4144444B
:10014000520052585F414444525F50322D350052A4
:10015000585F414444525F50302D31000D0A002554
:1001600030327800203078002553092563203D0087
:100170000D0A002030782530327800255309256398
:10018000203D004F4253455256455F54583D25305F
:1001900032783A20504F4C535F434E543D257820DF
:1001A0004152435F434E543D25780D0A005354415C
:1001B0005455530909203D2030782530327820529B
:1001C000585F44523D25782054585F44533D25786C
:1001D000204D41585F52543D25782052585F505F62
:1001E0004E4F3D25782054585F46554C4C3D257860
:1001F0000D0A00314D42505300324D4250530032EF
:1002000035304B425053006E524632344C30310040
:100210006E524632344C30312B0044697361626C4B
:100220006564003820626974730031362062697435
:10023000730050415F4D494E0050415F4C4F570095
:100240004C415F4D45440050415F48494748002AB2
:100250002A2A205741524E494E47202A2A2A20490D
:100260006E76616C696420616464726573732030BA
:10027000256F0A0D00696420253034782066726F7E
:100280006D2030256F20746F2030256F20747970B9
:10029000652025630000000000240027002A0000DC
:1002A000000000250028002B00000000002300268D
:1002B00000290004040404040404040202020202EB
:1002C000020303030303030102040810204080011A
:1002D000020408102001020408102000000007009A
:1002E00002010000030406000000000000000000FE
:1002F0005904E41111241FBECFEFD8E0DEBFCDBFFB
:1003000011E0A0E0B1E0E2EDFAE202C005900D924A
:10031000AC34B107D9F712E0ACE4B1E001C01D92F2
:10032000A83EB107E1F712E0C4EFD2E004C0229783
:10033000FE010E942C15C03FD107C9F70E943A1256
:100340000C9467150C940000FC0105900020E9F75F
:10035000809590958E0F9F1F0895FB01DC0102C0D0
:1003600001900D9241505040D8F70895A0E0B0E0C0
:10037000ECEBF1E00C944015FE0135966191719122
:10038000A091E402B091E50213968C9113978860D6
:1003900013968C938091E4029091E502AF010E9444
:1003A000DC01E091E402F091E5022381277F2383C1
:1003B0002096E2E00C945C15ABE0B0E0E2EEF1E0F8
:1003C0000C9430153C012B015A01FC011782168256
:1003D000838181FD03C06FEF7FEFC6C19AE0892E54
:1003E0001E010894211C311CF3012381F20123FD1D
:1003F000859123FF81912F01882309F4B2C18532B1
:1004000039F423FD859123FF81912F01853229F451
:1004100090E0B3010E94CF03E7CF982FFF24EE2492
:100420009924FFE1FF15D0F09B3269F09C3228F44B
:10043000903259F0933291F40EC09D3249F09033CE
:1004400069F441E024C052E0F52A84E0F82A28C08B
:1004500098E0F92A25C0E0E1FE2A22C0F7FC29C075
:10046000892F80538A3070F4F6FE05C0989C902C3A
:100470001124980E15C0E89CE02C1124E80EF0E23F
:10048000FF2A0EC09E3229F4F6FC6BC140E4F42A28
:1004900007C09C3619F450E8F52A02C0983649F492
:1004A000F20123FD959123FF91912F01992309F0EA
:1004B000B8CF892F8554833018F08052833038F4B8
:1004C00044E050E0A40EB51E5FE359830FC093369D
:1004D00031F0933779F0933509F056C020C0F5011B
:1004E0008081898342E050E0A40EB51E610101E0E5
:1004F00010E012C0F501C080D180F6FC03C06FEFA0
:100500007FEF02C0692D70E042E050E0A40EB51EFE
:10051000C6010E94C4038C015FE7F52214C0F501F7
:10052000C080D180F6FC03C06FEF7FEF02C0692D61
:1005300070E042E050E0A40EB51EC6010E94B9036F
:100540008C0150E8F52AF3FE07C01AC080E290E063
:10055000B3010E94CF03EA948E2D90E0081719078B
:10056000A8F30EC0F601F7FC8591F7FE81916F01AB
:1005700090E0B3010E94CF03E110EA9401501040D3
:100580000115110579F7EAC0943611F0993669F52D
:10059000F7FE08C0F501208131814281538184E05A
:1005A00090E00AC0F501808191819C01442737FDCC
:1005B0004095542F82E090E0A80EB91E9FE6F922E4
:1005C00057FF09C050954095309521953F4F4F4FAB
:1005D0005F4FE0E8FE2ACA01B901A1012AE030E03C
:1005E0000E94FB03D82ED21840C0953729F41F2D46
:1005F0001F7E2AE030E01DC01F2D197F9F3661F05D
:10060000903720F4983509F0ACC00FC0903739F01E
:10061000983709F0A6C004C028E030E00AC0106195
:1006200014FD146020E130E004C014FD166020E1E8
:1006300032E017FF08C0F5016081718182819381EA
:1006400044E050E008C0F50180819181BC0180E068
:1006500090E042E050E0A40EB51EA1010E94FB0311
:10066000D82ED2188FE7F82EF122F6FE0BC05EEFDF
:10067000F522D91438F4F4FE07C0F2FC05C08FEE61
:10068000F82202C01D2D01C0192DF4FE0DC0FE017F
:10069000ED0DF11D8081803319F499EEF92208C027
:1006A0001F5FF2FE05C003C08F2D867809F01F5F23
:1006B0000F2DF3FC14C0F0FE0FC01E1510F09D2C82
:1006C0000BC09D2C9E0C911A1E2D06C080E290E05E
:1006D000B3010E94CF031F5F1E15C0F304C01E1597
:1006E00010F4E11A01C0EE2404FF0FC080E390E093
:1006F000B3010E94CF0302FF1DC001FD03C088E7C4
:1007000090E00EC088E590E00BC0802F867891F0D5
:1007100001FF02C08BE201C080E2F7FC8DE290E0B5
:10072000B3010E94CF0306C080E390E0B3010E94B2
:10073000CF039A94D914C0F3DA94F101ED0DF11DB1
:10074000808190E0B3010E94CF03DD20A9F706C0AD
:1007500080E290E0B3010E94CF03EA94EE20C1F75B
:1007600043CEF30166817781CB012B96E2E10C94B5
:100770004C15FC010590615070400110D8F7809530
:1007800090958E0F9F1F0895FC016150704001905D
:100790000110D8F7809590958E0F9F1F08950F93A5
:1007A0001F93CF93DF938C01EB018B8181FF1BC0E3
:1007B00082FF0DC02E813F818C819D8128173907D2
:1007C00064F4E881F9810193F983E88306C0E88540
:1007D000F985802F0995892B31F48E819F810196AF
:1007E0009F838E8302C00FEF1FEFC801DF91CF916F
:1007F0001F910F910895FA01AA27283051F1203155
:1008000081F1E8946F936E7F6E5F7F4F8F4F9F4FA4
:10081000AF4FB1E03ED0B4E03CD0670F781F891FE6
:100820009A1FA11D680F791F8A1F911DA11D6A0FB4
:10083000711D811D911DA11D20D009F468943F9167
:100840002AE0269F11243019305D3193DEF6CF0166
:100850000895462F4770405D4193B3E00FD0C9F72C
:10086000F6CF462F4F70405D4A3318F0495D31FD99
:100870004052419302D0A9F7EACFB4E0A6959795EC
:10088000879577956795BA95C9F7009761057105C2
:1008900008959B01AC010A2E06945795479537950C
:1008A0002795BA95C9F7620F731F841F951FA01D66
:1008B00008950F931F930CE411E0C80169E04AE02A
:1008C0000E9434068CE591E0B8010E944A0D1F9108
:1008D0000F9108958F929F92AF92BF92CF92DF9225
:1008E000EF92FF920F931F93DF93CF93CDB7DEB7B5
:1008F000A5970FB6F894DEBF0FBECDBF8CE591E093
:100900000E94450F0E94AB139B01AC01809127020E
:1009100090912802A0912902B0912A0279018A01BE
:10092000E81AF90A0A0B1B0BD801C701885E93402D
:10093000A040B04008F0D1C08CE591E00E94450F86
:1009400099E0C92ED12CCC0EDD1E5E010894A11CAD
:10095000B11C8FE0882E912C8C0E9D1E8CE591E0B1
:100960000E94530D882309F4A5C08CE591E0B501E0
:10097000A6012DE130E00E94AD0E182F69817A8129
:1009800087EB92E040E150E00E942A1387EB92E06F
:100990006AE30E9473126D817E8187EB92E040E1F1
:1009A00050E00E942A1387EB92E06AE30E947312E0
:1009B00087EB92E0612F40E150E00E943B1387EB10
:1009C00092E06AE30E94731287EB92E067E171E0C4
:1009D0000E944D1387EB92E0698540E150E00E9450
:1009E0003B1387EB92E06AE30E94731287EB92E07D
:1009F0006A8540E150E00E943B1387EB92E06AE396
:100A00000E94731287EB92E06B8540E150E00E94F8
:100A10003B1387EB92E06AE30E94731287EB92E04C
:100A20006C8540E150E00E943B1387EB92E06AE363
:100A30000E94731287EB92E06D8540E150E00E94C6
:100A40003B1387EB92E06AE30E94731287EB92E01C
:100A50006E8540E150E00E943B1387EB92E06AE331
:100A60000E94731289858823C1F0740100E010E0B0
:100A700087EB92E0F70161917F0140E150E00E9435
:100A80003B1387EB92E06DE20E9473120F5F1F4FE2
:100A9000898590E0081719075CF387EB92E069E11C
:100AA00071E00E9450138CE591E00E94530D882361
:100AB00009F05BCFA5960FB6F894DEBF0FBECDBF91
:100AC000CF91DF911F910F91FF90EF90DF90CF902A
:100AD000BF90AF909F908F900895209327023093FE
:100AE00028024093290250932A0287EB92E060E0AB
:100AF00071E00E944D138E01075F1F4F8DE1F801D9
:100B000011928A95E9F782E1898791E19B8722E238
:100B10002C8733E33D8744E44E8755E55F8766E6DF
:100B2000688B77E7798BE8E8EA8BF9E9FB8BAAEA2F
:100B3000AC8BBBEBBD8B8CEC8E8B8DED8F8B8EEEEF
:100B4000888F8FEF898F9B8F2C8F3D8F4E8F5F8F7C
:100B500068A379A3EAA3FBA3ACA3BDA380912B0256
:100B600090912C02A0912D02B0912E028A870196BD
:100B7000A11DB11D80932B0290932C02A0932D02F6
:100B8000B0932E021C821B8280913401909135011A
:100B90009E838D83019690933501809334011F824B
:100BA00087EB92E068E140E150E00E943B138CE566
:100BB00091E0BE016F5F7F4FA80128E130E00E9405
:100BC000040F8823F9F087EB92E06DE20E94731224
:100BD00087EB92E068E140E150E00E943B1387EB35
:100BE00092E06AE30E94731287EB92E06A8540E12B
:100BF00050E00E943B1387EB92E06BE071E00E94B3
:100C000050139ACE87EB92E06FE071E00E94501390
:100C100093CE0F931F9307EB12E0C80140E051EE13
:100C200060E070E00E94B31000D088E690E0EDB77D
:100C3000FEB7928381830E94B6010F900F90C80186
:100C40006BE171E00E9450130E9412108CE491E05D
:100C50000E94130B8CE591E06AE545E050E00E94AC
:100C6000990F1F910F910895FC016083418381E0EA
:100C70008283138280E28483158216821086118615
:100C8000128613861486158616861786089570E0D8
:100C90008DB79EB70E970FB6F8949EBF0FBE8DBF4F
:100CA000EDB7FEB731968DEA91E0ADB7BEB71296BB
:100CB0009C938E93119773836283CB010024880FDA
:100CC000991F001C880F991F001C892F902D81707F
:100CD000907095838483CB019695879592958295A4
:100CE0008F7089279F708927817090709783868382
:100CF000CB01929582958F7089279F70892781708B
:100D0000907091878087CB019595879587709070BB
:100D10009387828761707070758764870E94B601BF
:100D20008DB79EB70E960FB6F8949EBF0FBE8DBFBF
:100D30000895FF920F931F938C01F62E81E00E947D
:100D4000F20F80E00E94FC0F80E00E940110F80189
:100D500081816F2D0E94B6141F910F91FF9008950D
:100D60001F93CF93DF93EC0160E070E00E9499063F
:100D700080E68EBD0DB407FEFDCF8EB58FEF8EBD24
:100D80000DB407FEFDCF1EB5CE0161E070E00E94FC
:100D90009906812FDF91CF911F9108951F93CF93D3
:100DA000DF93EC0160E070E00E9499068FEF8EBD4A
:100DB0000DB407FEFDCF1EB5CE0161E070E00E94CC
:100DC0009906812FDF91CF911F9108951F93CF93A3
:100DD000DF93EC0160E070E00E94990681EE8EBD29
:100DE0000DB407FEFDCF1EB5CE0161E070E00E949C
:100DF0009906812FDF91CF911F9108951F93CF9373
:100E0000DF93EC0160E070E00E94990682EE8EBDF7
:100E10000DB407FEFDCF1EB5CE0161E070E00E946B
:100E20009906812FDF91CF911F9108950F931F9302
:100E30008C01FC01808160E00E94B614C8010E9410
:100E4000E606C8010E94FE061F910F910895DF92E9
:100E5000EF92FF920F931F93CF93DF93EC01F62E47
:100E6000E72E9C81142F941708F4192F8E81882364
:100E7000F1F100E0CE0160E070E00E94990681E6A9
:100E80008EBD0DB407FEFDCFDEB41123A1F08F2D72
:100E90009E2D11509C01F9019FEFA901410F511D99
:100EA0009EBD0DB407FEFDCF8EB58083E417F50718
:100EB00011F03196F5CF002361F0802F81509FEF24
:100EC0009EBD0DB407FEFDCF2EB5882311F08150D5
:100ED000F7CFCE0161E070E00E9499068D2DDF9181
:100EE000CF911F910F91FF90EF90DF900895092F00
:100EF000011BC0CFDF92EF92FF920F931F93CF930E
:100F0000DF93EC01F62EE72E9C81142F941708F442
:100F1000192F8E818823D1F100E0CE0160E070E0CE
:100F20000E94990680EA8EBD0DB407FEFDCFDEB4A7
:100F3000112399F08F2D9E2DFC011150412F50E06F
:100F40004F5F5F4F4E0F5F1F81918EBD0DB407FE47
:100F5000FDCF8EB5E417F507B9F7002349F0802FD0
:100F600081501EBC0DB407FEFDCF9EB58823C1F78E
:100F7000CE0161E070E00E9499068D2DDF91CF9146
:100F80001F910F91FF90EF90DF900895092F011BA3
:100F9000C4CF0F931F93CF93DF93EC01162F042F31
:100FA00060E070E00E9499061F7110621EBD0DB4D2
:100FB00007FEFDCF1EB50EBD0DB407FEFDCF8EB5ED
:100FC000CE0161E070E00E949906812FDF91CF9100
:100FD0001F910F910895CF92DF92EF92FF920F939E
:100FE0001F938B017A01690167E040E70E94C907FE
:100FF00090E09C0136952795329522952F702327F6
:101000003F7023272170F8012083929582958F707D
:1010100089279F708927282F2170F70120839695B3
:101020008795969587958170F60180831F910F9122
:10103000FF90EF90DF90CF900895DF92EF92FF92B4
:101040000F931F93CF93DF938C017B010E94CE06F9
:10105000C82FD0E0CE010024880F991F001C880FF4
:10106000991F001C892F902DDD24D394D82280FF56
:1010700010C0E114F10431F0CE0195958795877089
:10108000F7018083C80167E040E40E94C907C5FDFD
:1010900009C08D2DDF91CF911F910F91FF90EF909F
:1010A000DF900895C80167E040E20E94C907F1CFD0
:1010B000462F603808F04FE765E00E94C9070895A1
:1010C000EF92FF920F931F93CF93DF93EC01162FB4
:1010D000F42EE52E022F60E070E00E9499061F7149
:1010E00010621EBD0DB407FEFDCF1EB5002399F0A2
:1010F00001508F2D9E2DFC01202F30E02F5F3F4FA0
:101100002E0F3F1F81918EBD0DB407FEFDCF8EB512
:10111000E217F307B9F7CE0161E070E00E9499068B
:10112000812FDF91CF911F910F91FF90EF90089544
:10113000EF92FF920F931F93DF93CF93CDB7DEB75C
:1011400028970FB6F894DEBF0FBECDBF7C01098390
:101150001A832B833C834D835E836F8378878E0154
:101160000F5F1F4F6AE0A80125E00E946008C701D9
:1011700060E1A80125E00E946008F7014481413246
:1011800008F040E2C70161E10E94C90728960FB646
:10119000F894DEBF0FBECDBFCF91DF911F910F91AD
:1011A000FF90EF9008951F93CF93DF93EC01162FDC
:1011B00060E070E00E9499061F711EBD0DB407FE2D
:1011C000FDCF8EB58FEF8EBD0DB407FEFDCF1EB5E2
:1011D000CE0161E070E00E949906812FDF91CF91EE
:1011E0001F91089560E00E94D3088C7083FF0AC0AD
:1011F00082FD04C021E030E0C901089522E030E022
:10120000C901089520E030E0C90108950F931F93AC
:10121000CF93DF938C01EB0160E00E94D308482F4D
:10122000437F209719F0219751F04C60C80160E08E
:101230000E94C907DF91CF911F910F9108954860D7
:10124000F5CF66E00E94D3088872803231F020E04A
:1012500030E0883031F0C901089522E030E0C90162
:10126000089521E030E0C9010895FF920F931F9384
:10127000CF93DF93EC018B0166E00E94D3081A82C2
:10128000B7EDFB2EF82202301105E1F00130110517
:10129000A1F01A82CE0166E04F2D0E94C907CE014F
:1012A00066E00E94D3088F1581F01A8280E0DF91FA
:1012B000CF911F910F91FF90089581E08A8388E07C
:1012C000F82AE8CF80E2F82AE5CF81E0DF91CF91DC
:1012D0001F910F91FF90089566E00E94D3088670D9
:1012E000863081F0843031F020E030E0823031F01F
:1012F000C901089522E030E0C901089521E030E0FD
:10130000C901089523E030E0C90108950F931F93A8
:10131000CF93DF938C01EB0166E00E94D308482F46
:10132000497FC330D10599F0C230D10591F0C13069
:10133000D10589F0209711F0249749F0C80166E0A3
:101340000E94C907DF91CF911F910F9108954660C8
:10135000F5CF4460F3CF4260F1CFCF92DF92EF92AE
:10136000FF920F931F93DF93CF93CDB7DEB72897EC
:101370000FB6F894DEBF0FBECDBF6C01E982FA82D2
:101380000B831C832D833E834F835887662309F08C
:101390004CC0F601E0868A8181878B8182878C81AF
:1013A00083878D8184878E8185878F8186878885D5
:1013B0008787062F10E0F801E457FF4FE491C6013C
:1013C0006E2FAE014F5F5F4F25E00E946008F8016D
:1013D000EE56FF4FE491C6016E2FF60144810E9444
:1013E000C907C60162E00E94D30808561F4FF801E2
:1013F000949121E030E002C0220F331F9A95E2F76A
:10140000482F422BC60162E00E94C90728960FB6FA
:10141000F894DEBF0FBECDBFCF91DF911F910F912A
:10142000FF90EF90DF90CF900895673078F76130AC
:1014300009F4BFCF062F10E0F801E457FF4FE49105
:101440006E2FAE014F5F5F4F21E00E946008BFCF5B
:101450000F931F938C010E942707C80167E10E9428
:10146000D30881701F910F910895DF92EF92FF9240
:101470000F931F938C017B01D42E60E00E94D30850
:10148000482F4C7F4260C80160E00E94C90786E98E
:1014900090E00E940514C801B7014D2D0E947A0703
:1014A000F801808161E00E94B6148FE090E00E9414
:1014B0000514F801808160E00E94B6141F910F911D
:1014C000FF90EF90DF9008950F931F938C0160E0E1
:1014D0000E94D308482F4D7FC80160E00E94C907D1
:1014E0001F910F910895CF93DF93EC0160E00E946C
:1014F000D308482F4360CE0160E00E94C907CE01A7
:1015000067E040E70E94C90788859985892B9A85FD
:10151000892B9B85892B9C85892B9D85892B9E8575
:10152000892B9F85892B41F0AE01485F5F4FCE012B
:101530006AE025E00E946008CE010E94FE06CE010E
:101540000E94E606888161E00E94B61482E890E07D
:101550000E940514DF91CF910895CF92DF92FF9200
:101560000F931F93CF93DF936C01EB01142F022F86
:10157000CB010E94A401089708F452C020E030E09B
:1015800000D000D000D0EDB7FEB731968BE791E0E8
:10159000ADB7BEB712969C938E931197D383C28337
:1015A000358324830E94B601EDB7FEB736960FB699
:1015B000F894FEBF0FBEEDBF0023F9F0C3E7D1E002
:1015C00001C01F2DF12EF394C601612F0E94D30894
:1015D00000D000D0EDB7FEB73196ADB7BEB71296CA
:1015E000DC93CE931197828313820E94B60101503F
:1015F0000F900F900F900F9021F700D080E791E0AF
:10160000EDB7FEB7928381830E94B6010F900F90D1
:10161000DF91CF911F910F91FF90DF90CF900895B0
:1016200029E030E0ADCFCF93DF93EC01888161E01A
:101630000E944A14898161E00E944A140E9412109B
:10164000888160E00E94B614CE0161E070E00E94E3
:10165000990665E070E080E090E00E94DF13CE0123
:1016600064E04FE40E94C907CE0163E070E00E948D
:101670008609CE0162E070E00E943509882311F0EE
:1016800081E08B83CE0160E070E00E943509CE01DD
:1016900062E070E00E940609CE016CE140E00E9429
:1016A000C907CE0167E040E70E94C907CE016CE49C
:1016B0000E945808CE010E94FE06CE010E94E60656
:1016C000DF91CF910895EF92FF920F931F93CF93E5
:1016D000DF93EC01162FF42EE52E022F60E070E070
:1016E0000E9499061F711EBD0DB407FEFDCF1EB5E9
:1016F000002399F001508F2D9E2DFC019FEF9F013B
:10170000200F311D9EBD0DB407FEFDCF8EB5808329
:10171000E217F30711F03196F5CFCE0161E070E0EA
:101720000E949906812FDF91CF911F910F91FF9019
:10173000EF900895AF92BF92CF92DF92EF92FF9217
:101740000F931F93DF93CF9300D00F92CDB7DEB7E7
:101750008C010E94350A0E94AB136B017C015E0173
:101760000894A11CB11CC80168E0A50121E00E94F9
:10177000630B807331F198012B5F3F4FC801BE01AD
:101780006E5F7F4FAE014D5F5F4F0E94EB07FA80A7
:10179000F8018581882309F5C8010E94640AC801FF
:1017A0000E94E6068F2D0F900F900F90CF91DF9142
:1017B0001F910F91FF90EF90DF90CF90BF90AF906F
:1017C00008950E94AB136C197D098E099F09645F0F
:1017D00071408040904078F6C6CFC8010E94B006A4
:1017E000F8018783D9CF4F925F926F927F928F9249
:1017F0009F92AF92BF92CF92DF92EF92FF920F93A0
:101800001F93DF93CF9300D000D00F92CDB7DEB7F8
:101810005C018B01C42ED22ECB010E94A40108973B
:1018200008F481C020E030E000D000D000D0EDB757
:10183000FEB7319688E691E0ADB7BEB712969C939D
:101840008E93119713830283358324830E94B601FC
:10185000EDB7FEB736960FB6F894FEBF0FBEEDBFDC
:101860002E010894411C511C84E6682E81E0782EDC
:1018700005E0802E912C8C0E9D1E1FE5E12E11E0BF
:10188000F12EDD2079F1C5016C2DA20125E00E9429
:10189000630B00D0ADB7BEB712967C926E921197D3
:1018A0000E94B60184010F900F9000D000D0EDB7D8
:1018B000FEB73196ADB7BEB71296FC92EE92119775
:1018C000D8018C91828313820E94B601015010408E
:1018D0000F900F900F900F900C171D0731F7C394C6
:1018E000DA9489F600D08CE591E0EDB7FEB79283EB
:1018F00081830E94B6010F900F900F900F900F9070
:101900000F900F90CF91DF911F910F91FF90EF906B
:10191000DF90CF90BF90AF909F908F907F906F900F
:101920005F904F90089529E030E07ECF0F931F9392
:101930008C010E94CE06682FC8010E944706C8018C
:101940006FE471E04AE022E00E94F30BC80162E418
:1019500071E04CE024E00E94AD0AC8016AE371E046
:1019600040E121E00E94F30BC8016FE271E041E128
:1019700026E00E94AD0AC80169E271E041E021E081
:101980000E94AD0AC8016FE171E042E021E00E94CF
:10199000AD0AC80169E171E045E021E00E94AD0AAD
:1019A000C80160E171E046E021E00E94AD0AC80193
:1019B00069E071E040E021E00E94AD0AC8016BEFF0
:1019C00070E04CE122E00E94AD0AC8010E942109AA
:1019D000FC01EE0FFF1FE256FF4F2591349100D01E
:1019E00000D089EE90E0EDB7FEB792838183348317
:1019F00023830E94B601F8018381E82FF0E0EE0F07
:101A0000FF1FEC55FF4F259134918AED90E0EDB723
:101A1000FEB792838183348323830E94B6010F90A3
:101A20000F900F900F90C8010E94F208FC01EE0F7A
:101A3000FF1FE855FF4F2591349100D000D087EC6F
:101A400090E0EDB7FEB792838183348323830E94B5
:101A5000B6010F900F900F900F90C8010E946C0973
:101A6000FC01EE0FFF1FE255FF4F2591349100D08E
:101A700000D086EB90E0EDB7FEB79283818334838C
:101A800023830E94B6010F900F900F900F901F912B
:101A90000F910895FC01718360838496EC53FF4F8E
:101AA000918380830895FC0140E09C012C5D3F4FB1
:101AB000EC53FF4F808191812817390708F441E0EA
:101AC000842F0895FC014281538141155105D1F1C4
:101AD0002FEF3FEF220F331F220F331F220F331F31
:101AE000C90184239523892BA9F7C9018095909575
:101AF000E753FF4F91838083BC0176956795769578
:101B00006795769567953397CB01842395239183C9
:101B10008083E65CF0409A016115710579F0CB0194
:101B200036952795369527953695279596958795D9
:101B30009695879596958795009791F7E853FF4F6F
:101B400020830895E753FF4F11821082339711824B
:101B50001082E65CF04020E030E0F0CFDF93CF93DE
:101B6000CDB7DEB728970FB6F894DEBF0FBECDBF56
:101B7000DC01E62FF0E0EA5CFE4F80818983FE0104
:101B800031964CE050E09D01042E02C03695279519
:101B90000A94E2F72F70822F90E0809590958295BD
:101BA0009295907F9827807F9827282B24834450F4
:101BB000504031978FEF4C3F580729F729813A81E0
:101BC0004B815C816D817E818F81988528960FB6CF
:101BD000F894DEBF0FBECDBFCF91DF9108959C0179
:101BE000009751F420C03695279536952795369560
:101BF000279521153105B9F0822F877081508530E6
:101C000090F300D000D08FE492E0EDB7FEB792835E
:101C10008183348323830E94B60180E00F900F906C
:101C20000F900F90089581E00895EF92FF920F9327
:101C30001F93CF93DF937C01CB01642F0E94AE0DE5
:101C4000FC01D7018D919C9189019A01AB01BF01E3
:101C50000E949808E701249605E010E0F7018081D2
:101C60009181BE0140E20E949A0B882339F0DF91F6
:101C7000CF911F910F91FF90EF9008950150104068
:101C800069F7DF91CF911F910F91FF90EF90089529
:101C9000CF92DF92EF92FF920F931F93CF93DF9338
:101CA000EC017B01CB010E94EF0D8823A9F1CA53FF
:101CB000DF4FC990D990099148815981C95CD040C2
:101CC0009701242335238A819B812817390731F115
:101CD000888199810E941607E3E0EE2EF12CCE0157
:101CE000B601402F0E94150E182F882371F08881AD
:101CF00099810E94730A812FDF91CF911F910F91DB
:101D0000FF90EF90DF90CF900895E114F10479F304
:101D10000894E108F108E3CF10E0EDCFCA01809507
:101D20009095880F991F880F991F880F991F8E21F2
:101D30009F21892B19F4670100E0CACF6A01CC0CFE
:101D4000DD1CCC0CDD1CCC0CDD1C87E090E0C82A2F
:101D5000D92ACE20DF2000E0BBCF0F931F93CF9373
:101D6000DF93142F052FE901FC01EC53FF4F208175
:101D7000318184968217930740F0C0E0D0E0CE0115
:101D8000DF91CF911F910F910895A90140525040CA
:101D900051834083DB01FA0188E001900D9281506C
:101DA000E1F7209751F3C931D10510F0C8E1D0E037
:101DB0009A01285F3F4F812F902FB901AE010E94F9
:101DC000AD01CE01DF91CF911F910F910895CF9377
:101DD000DF93FC01EC53FF4F208131812E173F0729
:101DE00020F080E0DF91CF910895E901DC011496A5
:101DF00080E20D9009928150E1F780819181809677
:101E00009183808381E0EECF0F931F93CF93DF9375
:101E1000EC018B018A819B81FB0191838083DE0130
:101E2000149688E001900D928150E1F7211531055B
:101E300081F4F801628173818A819B816817790737
:101E4000E1F0CE010E94480EDF91CF911F910F91DA
:101E50000895FE013C962931310510F028E130E06B
:101E6000CF01BA01A9010E94AD01F801628173811D
:101E70008A819B816817790721F7CE010E94E70EBE
:101E8000DF91CF911F910F910895AF92BF92DF9292
:101E9000EF92FF920F931F93DF93CF930F92CDB7E3
:101EA000DEB78C01B4E0EB2EF12CE80EF91E5E01DA
:101EB0000894A11CB11CD801ED91FC9180818F3F49
:101EC00049F081818F3F31F0CF01B5010E941D089B
:101ED000882359F40F90CF91DF911F910F91FF90BC
:101EE000EF90DF90BF90AF900895D8018D919C91B5
:101EF000B70140E20E94280AD82EF701828193811F
:101F00000E94EF0D882371F0D70112966D917C919C
:101F10001397F801828193816817790731F0C8011E
:101F20000E94480EDD2039F6E0CFC8010E94E70E7E
:101F3000F9CFAF92BF92DF92EF92FF920F931F9370
:101F4000CF93DF93EC01162F5A01CA010E94EF0DC7
:101F50008823F1F1BB82AA82E881F98180818F3FD9
:101F6000B9F181818F3FA1F1CF01612F0E94580803
:101F70008881998160E070E00E94350988819981AB
:101F800062E070E00E940609CE010E94620D15E039
:101F9000D12E08811981C5016D2D0E94AE0DE62F4D
:101FA000F82FA92FC8016D2D79018A012E2F372F07
:101FB0004F2F5A2F0E94AD09DA948FEFD81649F7A8
:101FC000888199810E94730A888199810E94960C68
:101FD000DF91CF911F910F91FF90EF90DF90BF9015
:101FE000AF900895882321F08CB58F7D8CBD089526
:101FF0008CB580628CBD08959CB5937F982B9CBD59
:1020000008952CB5382F33702C7F322B3CBD2DB565
:1020100090E0959587959595879581702E7F822B79
:102020008DBD089581E161E00E94B61481E161E017
:102030000E944A148CB580618CBD8CB580648CBDC7
:102040008FE061E00E944A1480E161E00E944A143E
:10205000089508951F920F920FB60F9211242F9397
:102060003F934F938F939F93EF93FF938091C00083
:1020700082FD1DC04091C60020916F023091700218
:102080002F5F3F4F2F7330708091710290917202D9
:102090002817390771F0E0916F02F0917002E15D4D
:1020A000FD4F40833093700220936F0202C08091F5
:1020B000C600FF91EF919F918F914F913F912F918A
:1020C0000F900FBE0F901F901895E091C302F091F2
:1020D000C402E05CFF4F8191919120813181821B8C
:1020E000930B8F739070892B11F00E942910089523
:1020F0001F920F920FB60F9211242F933F938F933D
:102100009F93EF93FF932091B3023091B40280919B
:10211000B5029091B6022817390731F48091C100B9
:102120008F7D8093C10014C0E091B502F091B6029A
:10213000ED58FD4F20818091B5029091B602019635
:102140008F7390709093B6028093B5022093C6006F
:10215000FF91EF919F918F913F912F910F900FBE23
:102160000F901F901895AF92BF92DF92EF92FF925F
:102170000F931F93CF93DF93EC017A018B01DD2442
:10218000403081EE580780E0680780E0780711F062
:10219000DD24D39491E0A92EB12CEC89FD89DD20BA
:1021A00069F0C50108A002C0880F991F0A94E2F7E0
:1021B000808360E079E08DE390E005C0108260E804
:1021C00074E88EE190E0A80197010E940815215063
:1021D000304040405040569547953795279580E1CF
:1021E0002030380720F0DD2011F0DD24D6CFE8893B
:1021F000F9893083EA89FB89208319A2EE89FF8956
:10220000408121E030E0C9010C8C02C0880F991F89
:102210000A94E2F7482B4083EE89FF894081C90187
:102220000D8C02C0880F991F0A94E2F7482B408357
:10223000EE89FF894081C9010E8C02C0880F991F69
:102240000A94E2F7482B4083EE89FF8980810F8C46
:1022500002C0220F331F0A94E2F72095282320831F
:10226000DF91CF911F910F91FF90EF90DF90BF9082
:10227000AF900895DC011C96ED91FC911D97E05CF8
:10228000FF4F2191319180819181281B390B2F7350
:102290003070C9010895DC011C96ED91FC911D97E9
:1022A000E05CFF4F20813181E054F040DF01AE5B04
:1022B000BF4F8D919C9111972817390719F42FEF73
:1022C0003FEF07C08D919C91E80FF91F8081282F67
:1022D00030E0C9010895DC011C96ED91FC911D9739
:1022E000E05CFF4F20813181E054F040DF01AE5BC4
:1022F000BF4F8D919C9111972817390719F42FEF33
:102300003FEF10C08D919C911197E80FF91F20812C
:102310008D919C91119701968F73907011969C935B
:102320008E9330E0C9010895DC0191968C919197CC
:10233000882339F05496ED91FC915597808186FF62
:10234000F9CF91961C920895CF93DF93EC01EE851F
:10235000FF85E05CFF4F20813181E054F0402F5F2A
:102360003F4F2F733070DF01AE5BBF4F8D919C915B
:10237000119728173907D1F3E05CFF4F80819181D5
:10238000E054F040E80FF91F6083EE85FF85E05CC4
:10239000FF4F31832083EE89FF89208181E090E027
:1023A0000F8C02C0880F991F0A94E2F7282B208314
:1023B00081E089A3EC89FD8980818064808381E04C
:1023C00090E0DF91CF9108951092BA021092B90275
:1023D00088EE93E0A0E0B0E08093BB029093BC0253
:1023E000A093BD02B093BE0280E491E09093B80246
:1023F0008093B7028FE292E09093C4028093C3026D
:1024000083E792E09093C6028093C50285EC90E04A
:102410009093C8028093C70284EC90E09093CA0224
:102420008093C90280EC90E09093CC028093CB0221
:1024300081EC90E09093CE028093CD0282EC90E00C
:102440009093D0028093CF0286EC90E09093D202DA
:102450008093D10284E08093D30283E08093D402FE
:1024600087E08093D50285E08093D60281E0809357
:10247000D7020895CF93DF930E940F140E9409069C
:10248000C5E6D0E10E946A042097E1F30E9465103E
:10249000F9CFCF92DF92EF92FF920F931F93CF93DA
:1024A000DF937C016B018A01C0E0D0E00FC0D60150
:1024B0006D916D01D701ED91FC910190F081E02DBE
:1024C000C7010995C80FD91F01501040011511050A
:1024D00071F7CE01DF91CF911F910F91FF90EF9097
:1024E000DF90CF900895DC01ED91FC910190F08197
:1024F000E02D09950895EF92FF920F931F938C01A1
:10250000DC01ED91FC910190F081E02D6DE00995E9
:102510007C01D801ED91FC910190F081E02DC80182
:102520006AE009959C012E0D3F1DC9011F910F9175
:10253000FF90EF900895CF93DF93EC016115710543
:1025400019F420E030E00FC0DB010D900020E9F726
:102550001197A61BB70BE881F9810280F381E02D6A
:10256000AD0109959C01C901DF91CF9108954F926A
:102570005F927F928F929F92AF92BF92CF92DF92A3
:10258000EF92FF920F931F93DF93CF93CDB7DEB7F8
:10259000A1970FB6F894DEBF0FBECDBF2C01742EED
:1025A000CB01223008F42AE019A231E2C32ED12C4B
:1025B000CC0EDD1E822E9924AA24BB24672D752FF4
:1025C000A50194010E94081579018A01C801B7018B
:1025D000A50194010E94E914472D461B0894C108E7
:1025E000D1084A3014F4405D01C0495CF6014083D3
:1025F000E114F1040105110521F07E2C5F2DC801C5
:10260000DDCFC201B6010E949B12A1960FB6F894CD
:10261000DEBF0FBECDBFCF91DF911F910F91FF9015
:10262000EF90DF90CF90BF90AF909F908F907F9072
:102630005F904F900895DC012115310541F4ED9133
:10264000FC910190F081E02D642F099508950E947E
:10265000B7120895EF92FF920F931F939A017B0197
:1026600000E010E0B801A7010E941B131F910F9119
:10267000FF90EF900895EF92FF920F931F939A01AE
:10268000E62EFF2400E010E0B801A7010E941B1312
:102690001F910F91FF90EF9008950E949B12089553
:1026A000EF92FF920F931F937C010E949B128C016B
:1026B000C7010E947B12080F191FC8011F910F91BB
:1026C000FF90EF9008951F920F920FB60F92112472
:1026D0002F933F938F939F93AF93BF938091DD028E
:1026E0009091DE02A091DF02B091E0023091E10210
:1026F0000196A11DB11D232F2D5F2D3720F02D57E1
:102700000196A11DB11D2093E1028093DD029093FB
:10271000DE02A093DF02B093E0028091D902909193
:10272000DA02A091DB02B091DC020196A11DB11D7D
:102730008093D9029093DA02A093DB02B093DC027B
:10274000BF91AF919F918F913F912F910F900FBEAD
:102750000F901F9018958FB7F8942091DD0230915B
:10276000DE024091DF025091E0028FBFB901CA0141
:1027700008959FB7F8942091D9023091DA024091E0
:10278000DB025091DC0286B5A89B06C08F3F21F08A
:102790002F5F3F4F4F4F5F4F9FBF542F432F322F1D
:1027A0002227280F311D411D511D82E0220F331FAA
:1027B000441F551F8A95D1F7B901CA010895EF92B8
:1027C000FF920F931F93CF93DF937B018C010E94A5
:1027D000B913EB010EC00E94B9136C1B7D0B685E30
:1027E0007340C8F30894E108F10801091109C851C0
:1027F000DC4FE114F1040105110569F7DF91CF9178
:102800001F910F91FF90EF900895019739F0880F75
:10281000991F880F991F02970197F1F708957894EF
:1028200084B5826084BD84B5816084BD85B58260D5
:1028300085BD85B5816085BDEEE6F0E08081816073
:102840008083E1E8F0E01082808182608083808173
:1028500081608083E0E8F0E0808181608083E1EB4B
:10286000F0E0808184608083E0EBF0E08081816033
:102870008083EAE7F0E080818460808380818260E9
:1028800080838081816080838081806880831092D2
:10289000C1000895CF93DF93482F50E0CA018953B8
:1028A0009D4FFC0134914D545D4FFA018491882372
:1028B00069F190E0880F991FFC01EB56FD4FA5913F
:1028C000B491FC01E156FD4FC591D491662351F4BA
:1028D0002FB7F8948C91932F909589238C938881AE
:1028E00089230BC0623061F42FB7F8948C91932F39
:1028F000909589238C938881832B88832FBF06C072
:102900009FB7F8948C91832B8C939FBFDF91CF91CD
:102910000895833071F0843028F48130A1F0823042
:1029200021F514C08630B1F08730D1F08430E9F45D
:1029300004C0809180008F7703C0809180008F7DDC
:1029400080938000089584B58F7702C084B58F7D11
:1029500084BD08958091B0008F778093B000089572
:102960008091B0008F7D8093B0000895FF920F9307
:102970001F93F62E482F50E0CA0185529D4FFC014F
:102980002491CA0189539D4FFC0114914D545D4F10
:10299000FA0104910023C9F0222319F0822F0E942A
:1029A0008914E02FF0E0EE0FFF1FE156FD4FA591D7
:1029B000B4919FB7F894FF2021F48C911095812356
:1029C00002C08C91812B8C939FBF1F910F91FF9020
:1029D0000895629FD001739FF001829FE00DF11D69
:1029E000649FE00DF11D929FF00D839FF00D749F89
:1029F000F00D659FF00D9927729FB00DE11DF91F35
:102A0000639FB00DE11DF91FBD01CF011124089591
:102A1000A1E21A2EAA1BBB1BFD010DC0AA1FBB1FE2
:102A2000EE1FFF1FA217B307E407F50720F0A21B54
:102A3000B30BE40BF50B661F771F881F991F1A94C1
:102A400069F760957095809590959B01AC01BD01EB
:102A5000CF010895EE0FFF1F0590F491E02D09942A
:102A60002F923F924F925F926F927F928F929F929E
:102A7000AF92BF92CF92DF92EF92FF920F931F938C
:102A8000CF93DF93CDB7DEB7CA1BDB0B0FB6F8943D
:102A9000DEBF0FBECDBF09942A88398848885F847D
:102AA0006E847D848C849B84AA84B984C884DF80EE
:102AB000EE80FD800C811B81AA81B981CE0FD11DD2
:102AC0000FB6F894DEBF0FBECDBFED010895F894A8
:022AD000FFCF36
:102AD20053656E64696E672E2E2E006F6B2E006634
:102AE20061696C65642E005B005D002D2D2D2D004B
:102AF20043616C6C206D65674342204D6573736161
:102B020067653D0001003C5A6996A5C300000000BC
:0C2B1200A41149123A116B114B119411DF
:00000001FF
